{
  "contractName": "BDQToken",
  "abi": [
    {
      "constant": true,
      "inputs": [],
      "name": "mintingFinished",
      "outputs": [
        {
          "name": "",
          "type": "bool"
        }
      ],
      "payable": false,
      "stateMutability": "view",
      "type": "function"
    },
    {
      "constant": true,
      "inputs": [],
      "name": "name",
      "outputs": [
        {
          "name": "",
          "type": "string"
        }
      ],
      "payable": false,
      "stateMutability": "view",
      "type": "function"
    },
    {
      "constant": false,
      "inputs": [
        {
          "name": "_spender",
          "type": "address"
        },
        {
          "name": "_value",
          "type": "uint256"
        }
      ],
      "name": "approve",
      "outputs": [
        {
          "name": "",
          "type": "bool"
        }
      ],
      "payable": false,
      "stateMutability": "nonpayable",
      "type": "function"
    },
    {
      "constant": true,
      "inputs": [],
      "name": "totalSupply",
      "outputs": [
        {
          "name": "",
          "type": "uint256"
        }
      ],
      "payable": false,
      "stateMutability": "view",
      "type": "function"
    },
    {
      "constant": false,
      "inputs": [
        {
          "name": "_from",
          "type": "address"
        },
        {
          "name": "_to",
          "type": "address"
        },
        {
          "name": "_value",
          "type": "uint256"
        }
      ],
      "name": "transferFrom",
      "outputs": [
        {
          "name": "",
          "type": "bool"
        }
      ],
      "payable": false,
      "stateMutability": "nonpayable",
      "type": "function"
    },
    {
      "constant": true,
      "inputs": [],
      "name": "decimals",
      "outputs": [
        {
          "name": "",
          "type": "uint8"
        }
      ],
      "payable": false,
      "stateMutability": "view",
      "type": "function"
    },
    {
      "constant": true,
      "inputs": [],
      "name": "initialSupply",
      "outputs": [
        {
          "name": "",
          "type": "uint256"
        }
      ],
      "payable": false,
      "stateMutability": "view",
      "type": "function"
    },
    {
      "constant": false,
      "inputs": [],
      "name": "unpause",
      "outputs": [],
      "payable": false,
      "stateMutability": "nonpayable",
      "type": "function"
    },
    {
      "constant": false,
      "inputs": [
        {
          "name": "_to",
          "type": "address"
        },
        {
          "name": "_amount",
          "type": "uint256"
        }
      ],
      "name": "mint",
      "outputs": [
        {
          "name": "",
          "type": "bool"
        }
      ],
      "payable": false,
      "stateMutability": "nonpayable",
      "type": "function"
    },
    {
      "constant": true,
      "inputs": [],
      "name": "paused",
      "outputs": [
        {
          "name": "",
          "type": "bool"
        }
      ],
      "payable": false,
      "stateMutability": "view",
      "type": "function"
    },
    {
      "constant": false,
      "inputs": [
        {
          "name": "_spender",
          "type": "address"
        },
        {
          "name": "_subtractedValue",
          "type": "uint256"
        }
      ],
      "name": "decreaseApproval",
      "outputs": [
        {
          "name": "success",
          "type": "bool"
        }
      ],
      "payable": false,
      "stateMutability": "nonpayable",
      "type": "function"
    },
    {
      "constant": true,
      "inputs": [
        {
          "name": "_owner",
          "type": "address"
        }
      ],
      "name": "balanceOf",
      "outputs": [
        {
          "name": "balance",
          "type": "uint256"
        }
      ],
      "payable": false,
      "stateMutability": "view",
      "type": "function"
    },
    {
      "constant": false,
      "inputs": [],
      "name": "finishMinting",
      "outputs": [
        {
          "name": "",
          "type": "bool"
        }
      ],
      "payable": false,
      "stateMutability": "nonpayable",
      "type": "function"
    },
    {
      "constant": false,
      "inputs": [],
      "name": "pause",
      "outputs": [],
      "payable": false,
      "stateMutability": "nonpayable",
      "type": "function"
    },
    {
      "constant": true,
      "inputs": [],
      "name": "owner",
      "outputs": [
        {
          "name": "",
          "type": "address"
        }
      ],
      "payable": false,
      "stateMutability": "view",
      "type": "function"
    },
    {
      "constant": true,
      "inputs": [],
      "name": "symbol",
      "outputs": [
        {
          "name": "",
          "type": "string"
        }
      ],
      "payable": false,
      "stateMutability": "view",
      "type": "function"
    },
    {
      "constant": false,
      "inputs": [],
      "name": "startMinting",
      "outputs": [
        {
          "name": "",
          "type": "bool"
        }
      ],
      "payable": false,
      "stateMutability": "nonpayable",
      "type": "function"
    },
    {
      "constant": false,
      "inputs": [
        {
          "name": "_to",
          "type": "address"
        },
        {
          "name": "_value",
          "type": "uint256"
        }
      ],
      "name": "transfer",
      "outputs": [
        {
          "name": "",
          "type": "bool"
        }
      ],
      "payable": false,
      "stateMutability": "nonpayable",
      "type": "function"
    },
    {
      "constant": false,
      "inputs": [
        {
          "name": "_spender",
          "type": "address"
        },
        {
          "name": "_addedValue",
          "type": "uint256"
        }
      ],
      "name": "increaseApproval",
      "outputs": [
        {
          "name": "success",
          "type": "bool"
        }
      ],
      "payable": false,
      "stateMutability": "nonpayable",
      "type": "function"
    },
    {
      "constant": true,
      "inputs": [
        {
          "name": "_owner",
          "type": "address"
        },
        {
          "name": "_spender",
          "type": "address"
        }
      ],
      "name": "allowance",
      "outputs": [
        {
          "name": "",
          "type": "uint256"
        }
      ],
      "payable": false,
      "stateMutability": "view",
      "type": "function"
    },
    {
      "constant": false,
      "inputs": [
        {
          "name": "newOwner",
          "type": "address"
        }
      ],
      "name": "transferOwnership",
      "outputs": [],
      "payable": false,
      "stateMutability": "nonpayable",
      "type": "function"
    },
    {
      "inputs": [
        {
          "name": "bdqWallet",
          "type": "address"
        },
        {
          "name": "_initialSupply",
          "type": "uint256"
        }
      ],
      "payable": false,
      "stateMutability": "nonpayable",
      "type": "constructor"
    },
    {
      "anonymous": false,
      "inputs": [
        {
          "indexed": false,
          "name": "newName",
          "type": "string"
        },
        {
          "indexed": false,
          "name": "newSymbol",
          "type": "string"
        }
      ],
      "name": "UpdatedTokenInformation",
      "type": "event"
    },
    {
      "anonymous": false,
      "inputs": [
        {
          "indexed": true,
          "name": "to",
          "type": "address"
        },
        {
          "indexed": false,
          "name": "amount",
          "type": "uint256"
        }
      ],
      "name": "Mint",
      "type": "event"
    },
    {
      "anonymous": false,
      "inputs": [],
      "name": "MintFinished",
      "type": "event"
    },
    {
      "anonymous": false,
      "inputs": [],
      "name": "MintStarted",
      "type": "event"
    },
    {
      "anonymous": false,
      "inputs": [],
      "name": "Pause",
      "type": "event"
    },
    {
      "anonymous": false,
      "inputs": [],
      "name": "Unpause",
      "type": "event"
    },
    {
      "anonymous": false,
      "inputs": [
        {
          "indexed": true,
          "name": "previousOwner",
          "type": "address"
        },
        {
          "indexed": true,
          "name": "newOwner",
          "type": "address"
        }
      ],
      "name": "OwnershipTransferred",
      "type": "event"
    },
    {
      "anonymous": false,
      "inputs": [
        {
          "indexed": true,
          "name": "owner",
          "type": "address"
        },
        {
          "indexed": true,
          "name": "spender",
          "type": "address"
        },
        {
          "indexed": false,
          "name": "value",
          "type": "uint256"
        }
      ],
      "name": "Approval",
      "type": "event"
    },
    {
      "anonymous": false,
      "inputs": [
        {
          "indexed": true,
          "name": "from",
          "type": "address"
        },
        {
          "indexed": true,
          "name": "to",
          "type": "address"
        },
        {
          "indexed": false,
          "name": "value",
          "type": "uint256"
        }
      ],
      "name": "Transfer",
      "type": "event"
    },
    {
      "constant": false,
      "inputs": [
        {
          "name": "_name",
          "type": "string"
        },
        {
          "name": "_symbol",
          "type": "string"
        }
      ],
      "name": "setTokenInformation",
      "outputs": [],
      "payable": false,
      "stateMutability": "nonpayable",
      "type": "function"
    }
  ],
  "bytecode": "0x6003805460a060020a61ffff021916905560c0604052600460808190527f424441510000000000000000000000000000000000000000000000000000000060a09081526200004f91908162000154565b506040805180820190915260038082527f42445100000000000000000000000000000000000000000000000000000000006020909201918252620000969160059162000154565b50348015620000a457600080fd5b506040516040806200135b83398101604052805160209091015160038054600160a060020a03191633179055600160a060020a0382161515620000e657600080fd5b60008111620000f457600080fd5b60068190556001819055600160a060020a038216600081815260208181526040808320859055805185815290517fddf252ad1be2c89b69c2b068fc378daa952ba7f163c4a11628f55a4df523b3ef929181900390910190a35050620001f9565b828054600181600116156101000203166002900490600052602060002090601f016020900481019282601f106200019757805160ff1916838001178555620001c7565b82800160010185558215620001c7579182015b82811115620001c7578251825591602001919060010190620001aa565b50620001d5929150620001d9565b5090565b620001f691905b80821115620001d55760008155600101620001e0565b90565b61115280620002096000396000f3006080604052600436106101275763ffffffff7c010000000000000000000000000000000000000000000000000000000060003504166305d2035b811461012c57806306fdde0314610155578063095ea7b3146101df57806318160ddd1461020357806323b872dd1461022a578063313ce56714610254578063378dc3dc1461027f5780633f4ba83a1461029457806340c10f19146102ab5780634eee966f146102cf5780635c975abb14610366578063661884631461037b57806370a082311461039f5780637d64bcb4146103c05780638456cb59146103d55780638da5cb5b146103ea57806395d89b411461041b5780639a65ea2614610430578063a9059cbb14610445578063d73dd62314610469578063dd62ed3e1461048d578063f2fde38b146104b4575b600080fd5b34801561013857600080fd5b506101416104d5565b604080519115158252519081900360200190f35b34801561016157600080fd5b5061016a6104e5565b6040805160208082528351818301528351919283929083019185019080838360005b838110156101a457818101518382015260200161018c565b50505050905090810190601f1680156101d15780820380516001836020036101000a031916815260200191505b509250505060405180910390f35b3480156101eb57600080fd5b50610141600160a060020a0360043516602435610573565b34801561020f57600080fd5b5061021861059e565b60408051918252519081900360200190f35b34801561023657600080fd5b50610141600160a060020a03600435811690602435166044356105a5565b34801561026057600080fd5b506102696105d2565b6040805160ff9092168252519081900360200190f35b34801561028b57600080fd5b506102186105d7565b3480156102a057600080fd5b506102a96105dd565b005b3480156102b757600080fd5b50610141600160a060020a0360043516602435610655565b3480156102db57600080fd5b506040805160206004803580820135601f81018490048402850184019095528484526102a994369492936024939284019190819084018382808284375050604080516020601f89358b018035918201839004830284018301909452808352979a9998810197919650918201945092508291508401838280828437509497506107769650505050505050565b34801561037257600080fd5b506101416108e3565b34801561038757600080fd5b50610141600160a060020a03600435166024356108f3565b3480156103ab57600080fd5b50610218600160a060020a0360043516610917565b3480156103cc57600080fd5b50610141610932565b3480156103e157600080fd5b506102a96109b7565b3480156103f657600080fd5b506103ff610a34565b60408051600160a060020a039092168252519081900360200190f35b34801561042757600080fd5b5061016a610a43565b34801561043c57600080fd5b50610141610a9e565b34801561045157600080fd5b50610141600160a060020a0360043516602435610b1e565b34801561047557600080fd5b50610141600160a060020a0360043516602435610b42565b34801561049957600080fd5b50610218600160a060020a0360043581169060243516610b66565b3480156104c057600080fd5b506102a9600160a060020a0360043516610b91565b60035460a860020a900460ff1681565b6004805460408051602060026001851615610100026000190190941693909304601f8101849004840282018401909252818152929183018282801561056b5780601f106105405761010080835404028352916020019161056b565b820191906000526020600020905b81548152906001019060200180831161054e57829003601f168201915b505050505081565b60035460009060a060020a900460ff161561058d57600080fd5b6105978383610c26565b9392505050565b6001545b90565b60035460009060a060020a900460ff16156105bf57600080fd5b6105ca848484610c8c565b949350505050565b601281565b60065481565b600354600160a060020a031633146105f457600080fd5b60035460a060020a900460ff16151561060c57600080fd5b6003805474ff0000000000000000000000000000000000000000191690556040517f7805862f689e2f13df9f062ff482ad3ad112aca9e0847911ed832e158c525b3390600090a1565b600354600090600160a060020a0316331461066f57600080fd5b60035460a860020a900460ff161561068657600080fd5b60035460a060020a900460ff161561069d57600080fd5b6001546106b0908363ffffffff610e0316565b600155600160a060020a0383166000908152602081905260409020546106dc908363ffffffff610e0316565b600160a060020a03841660008181526020818152604091829020939093558051858152905191927f0f6798a560793a54c3bcfe86a93cde1e73087d944c0ea20544137d412139688592918290030190a2604080518381529051600160a060020a038516916000917fddf252ad1be2c89b69c2b068fc378daa952ba7f163c4a11628f55a4df523b3ef9181900360200190a350600192915050565b600354600160a060020a0316331461078d57600080fd5b81516107a090600490602085019061108e565b5080516107b490600590602084019061108e565b506040805181815260048054600260001961010060018416150201909116049282018390527fd131ab1e6f279deea74e13a18477e13e2107deb6dc8ae955648948be5841fb469290916005918190602082019060608301908690801561085b5780601f106108305761010080835404028352916020019161085b565b820191906000526020600020905b81548152906001019060200180831161083e57829003601f168201915b50508381038252845460026000196101006001841615020190911604808252602090910190859080156108cf5780601f106108a4576101008083540402835291602001916108cf565b820191906000526020600020905b8154815290600101906020018083116108b257829003601f168201915b505094505050505060405180910390a15050565b60035460a060020a900460ff1681565b60035460009060a060020a900460ff161561090d57600080fd5b6105978383610e12565b600160a060020a031660009081526020819052604090205490565b600354600090600160a060020a0316331461094c57600080fd5b60035460a860020a900460ff161561096357600080fd5b6003805475ff000000000000000000000000000000000000000000191660a860020a1790556040517fae5184fba832cb2b1f702aca6117b8d265eaf03ad33eb133f19dde0f5920fa0890600090a150600190565b600354600160a060020a031633146109ce57600080fd5b60035460a060020a900460ff16156109e557600080fd5b6003805474ff0000000000000000000000000000000000000000191660a060020a1790556040517f6985a02210a168e66602d3235cb6db0e70f92b3ba4d376a33c0f3d9434bff62590600090a1565b600354600160a060020a031681565b6005805460408051602060026001851615610100026000190190941693909304601f8101849004840282018401909252818152929183018282801561056b5780601f106105405761010080835404028352916020019161056b565b600354600090600160a060020a03163314610ab857600080fd5b60035460a860020a900460ff161515610ad057600080fd5b6003805475ff000000000000000000000000000000000000000000191690556040517f452a344f03203071e1daf66e007976c85cb2380deabf1c91f3c4fb1fca41204990600090a150600190565b60035460009060a060020a900460ff1615610b3857600080fd5b6105978383610f02565b60035460009060a060020a900460ff1615610b5c57600080fd5b6105978383610fe3565b600160a060020a03918216600090815260026020908152604080832093909416825291909152205490565b600354600160a060020a03163314610ba857600080fd5b600160a060020a0381161515610bbd57600080fd5b600354604051600160a060020a038084169216907f8be0079c531659141344cd1fd0a4f28419497f9722a3daafe3b4186f6b6457e090600090a36003805473ffffffffffffffffffffffffffffffffffffffff1916600160a060020a0392909216919091179055565b336000818152600260209081526040808320600160a060020a038716808552908352818420869055815186815291519394909390927f8c5be1e5ebec7d5bd14f71427d1e84f3dd0314c0f7b2291e5b200ac8c7c3b925928290030190a350600192915050565b6000600160a060020a0383161515610ca357600080fd5b600160a060020a038416600090815260208190526040902054821115610cc857600080fd5b600160a060020a0384166000908152600260209081526040808320338452909152902054821115610cf857600080fd5b600160a060020a038416600090815260208190526040902054610d21908363ffffffff61107c16565b600160a060020a038086166000908152602081905260408082209390935590851681522054610d56908363ffffffff610e0316565b600160a060020a03808516600090815260208181526040808320949094559187168152600282528281203382529091522054610d98908363ffffffff61107c16565b600160a060020a03808616600081815260026020908152604080832033845282529182902094909455805186815290519287169391927fddf252ad1be2c89b69c2b068fc378daa952ba7f163c4a11628f55a4df523b3ef929181900390910190a35060019392505050565b60008282018381101561059757fe5b336000908152600260209081526040808320600160a060020a038616845290915281205480831115610e6757336000908152600260209081526040808320600160a060020a0388168452909152812055610e9c565b610e77818463ffffffff61107c16565b336000908152600260209081526040808320600160a060020a03891684529091529020555b336000818152600260209081526040808320600160a060020a0389168085529083529281902054815190815290519293927f8c5be1e5ebec7d5bd14f71427d1e84f3dd0314c0f7b2291e5b200ac8c7c3b925929181900390910190a35060019392505050565b6000600160a060020a0383161515610f1957600080fd5b33600090815260208190526040902054821115610f3557600080fd5b33600090815260208190526040902054610f55908363ffffffff61107c16565b3360009081526020819052604080822092909255600160a060020a03851681522054610f87908363ffffffff610e0316565b600160a060020a038416600081815260208181526040918290209390935580518581529051919233927fddf252ad1be2c89b69c2b068fc378daa952ba7f163c4a11628f55a4df523b3ef9281900390910190a350600192915050565b336000908152600260209081526040808320600160a060020a0386168452909152812054611017908363ffffffff610e0316565b336000818152600260209081526040808320600160a060020a0389168085529083529281902085905580519485525191937f8c5be1e5ebec7d5bd14f71427d1e84f3dd0314c0f7b2291e5b200ac8c7c3b925929081900390910190a350600192915050565b60008282111561108857fe5b50900390565b828054600181600116156101000203166002900490600052602060002090601f016020900481019282601f106110cf57805160ff19168380011785556110fc565b828001600101855582156110fc579182015b828111156110fc5782518255916020019190600101906110e1565b5061110892915061110c565b5090565b6105a291905b8082111561110857600081556001016111125600a165627a7a723058206d9a07e6928de7bf7cb6d96b49f8ab4d5492fc00c51531c196539d0b9054d82c0029",
  "source": "pragma solidity ^0.4.21;\n\nimport \"./PausableAndMintableToken.sol\";\n\n\ncontract BDQToken is PausableAndMintableToken {\n    string public name = \"BDAQ\";\n    string public symbol = \"BDQ\";\n    uint8 public constant decimals = 18;\n\n    // For patient incentive programs\n    uint256 public initialSupply;\n\n    event UpdatedTokenInformation(string newName, string newSymbol);\n\n    constructor(address bdqWallet, uint256 _initialSupply) public {\n        require(bdqWallet != address(0));\n        require(_initialSupply > 0);\n\n        initialSupply = _initialSupply;\n        totalSupply_ = _initialSupply;\n        balances[bdqWallet] = _initialSupply;\n\n        emit Transfer(address(0), bdqWallet, _initialSupply);\n    }\n\n    /**\n    * Owner can update token information here\n    */\n    function setTokenInformation(string _name, string _symbol) public onlyOwner {\n        name = _name;\n        symbol = _symbol;\n\n        emit UpdatedTokenInformation(name, symbol);\n    }\n}\n",
  "sourcePath": "/home/salasar/Desktop/EtherenumWorkspace/polymath-token-master/contracts/BDQToken.sol",
  "compiler": {
    "name": "solc",
    "version": "0.4.24+commit.e67f0147.Emscripten.clang"
  },
  "schemaVersion": "2.0.1",
  "updatedAt": "2018-07-06T10:46:39.069Z"
}