{
  "contractName": "PausableAndMintableToken",
  "abi": [
    {
      "constant": true,
      "inputs": [],
      "name": "mintingFinished",
      "outputs": [
        {
          "name": "",
          "type": "bool"
        }
      ],
      "payable": false,
      "stateMutability": "view",
      "type": "function"
    },
    {
      "constant": false,
      "inputs": [
        {
          "name": "_spender",
          "type": "address"
        },
        {
          "name": "_value",
          "type": "uint256"
        }
      ],
      "name": "approve",
      "outputs": [
        {
          "name": "",
          "type": "bool"
        }
      ],
      "payable": false,
      "stateMutability": "nonpayable",
      "type": "function"
    },
    {
      "constant": true,
      "inputs": [],
      "name": "totalSupply",
      "outputs": [
        {
          "name": "",
          "type": "uint256"
        }
      ],
      "payable": false,
      "stateMutability": "view",
      "type": "function"
    },
    {
      "constant": false,
      "inputs": [
        {
          "name": "_from",
          "type": "address"
        },
        {
          "name": "_to",
          "type": "address"
        },
        {
          "name": "_value",
          "type": "uint256"
        }
      ],
      "name": "transferFrom",
      "outputs": [
        {
          "name": "",
          "type": "bool"
        }
      ],
      "payable": false,
      "stateMutability": "nonpayable",
      "type": "function"
    },
    {
      "constant": false,
      "inputs": [],
      "name": "unpause",
      "outputs": [],
      "payable": false,
      "stateMutability": "nonpayable",
      "type": "function"
    },
    {
      "constant": true,
      "inputs": [],
      "name": "paused",
      "outputs": [
        {
          "name": "",
          "type": "bool"
        }
      ],
      "payable": false,
      "stateMutability": "view",
      "type": "function"
    },
    {
      "constant": false,
      "inputs": [
        {
          "name": "_spender",
          "type": "address"
        },
        {
          "name": "_subtractedValue",
          "type": "uint256"
        }
      ],
      "name": "decreaseApproval",
      "outputs": [
        {
          "name": "success",
          "type": "bool"
        }
      ],
      "payable": false,
      "stateMutability": "nonpayable",
      "type": "function"
    },
    {
      "constant": true,
      "inputs": [
        {
          "name": "_owner",
          "type": "address"
        }
      ],
      "name": "balanceOf",
      "outputs": [
        {
          "name": "balance",
          "type": "uint256"
        }
      ],
      "payable": false,
      "stateMutability": "view",
      "type": "function"
    },
    {
      "constant": false,
      "inputs": [],
      "name": "pause",
      "outputs": [],
      "payable": false,
      "stateMutability": "nonpayable",
      "type": "function"
    },
    {
      "constant": true,
      "inputs": [],
      "name": "owner",
      "outputs": [
        {
          "name": "",
          "type": "address"
        }
      ],
      "payable": false,
      "stateMutability": "view",
      "type": "function"
    },
    {
      "constant": false,
      "inputs": [
        {
          "name": "_to",
          "type": "address"
        },
        {
          "name": "_value",
          "type": "uint256"
        }
      ],
      "name": "transfer",
      "outputs": [
        {
          "name": "",
          "type": "bool"
        }
      ],
      "payable": false,
      "stateMutability": "nonpayable",
      "type": "function"
    },
    {
      "constant": false,
      "inputs": [
        {
          "name": "_spender",
          "type": "address"
        },
        {
          "name": "_addedValue",
          "type": "uint256"
        }
      ],
      "name": "increaseApproval",
      "outputs": [
        {
          "name": "success",
          "type": "bool"
        }
      ],
      "payable": false,
      "stateMutability": "nonpayable",
      "type": "function"
    },
    {
      "constant": true,
      "inputs": [
        {
          "name": "_owner",
          "type": "address"
        },
        {
          "name": "_spender",
          "type": "address"
        }
      ],
      "name": "allowance",
      "outputs": [
        {
          "name": "",
          "type": "uint256"
        }
      ],
      "payable": false,
      "stateMutability": "view",
      "type": "function"
    },
    {
      "constant": false,
      "inputs": [
        {
          "name": "newOwner",
          "type": "address"
        }
      ],
      "name": "transferOwnership",
      "outputs": [],
      "payable": false,
      "stateMutability": "nonpayable",
      "type": "function"
    },
    {
      "anonymous": false,
      "inputs": [
        {
          "indexed": true,
          "name": "to",
          "type": "address"
        },
        {
          "indexed": false,
          "name": "amount",
          "type": "uint256"
        }
      ],
      "name": "Mint",
      "type": "event"
    },
    {
      "anonymous": false,
      "inputs": [],
      "name": "MintFinished",
      "type": "event"
    },
    {
      "anonymous": false,
      "inputs": [],
      "name": "MintStarted",
      "type": "event"
    },
    {
      "anonymous": false,
      "inputs": [],
      "name": "Pause",
      "type": "event"
    },
    {
      "anonymous": false,
      "inputs": [],
      "name": "Unpause",
      "type": "event"
    },
    {
      "anonymous": false,
      "inputs": [
        {
          "indexed": true,
          "name": "previousOwner",
          "type": "address"
        },
        {
          "indexed": true,
          "name": "newOwner",
          "type": "address"
        }
      ],
      "name": "OwnershipTransferred",
      "type": "event"
    },
    {
      "anonymous": false,
      "inputs": [
        {
          "indexed": true,
          "name": "owner",
          "type": "address"
        },
        {
          "indexed": true,
          "name": "spender",
          "type": "address"
        },
        {
          "indexed": false,
          "name": "value",
          "type": "uint256"
        }
      ],
      "name": "Approval",
      "type": "event"
    },
    {
      "anonymous": false,
      "inputs": [
        {
          "indexed": true,
          "name": "from",
          "type": "address"
        },
        {
          "indexed": true,
          "name": "to",
          "type": "address"
        },
        {
          "indexed": false,
          "name": "value",
          "type": "uint256"
        }
      ],
      "name": "Transfer",
      "type": "event"
    },
    {
      "constant": false,
      "inputs": [
        {
          "name": "_to",
          "type": "address"
        },
        {
          "name": "_amount",
          "type": "uint256"
        }
      ],
      "name": "mint",
      "outputs": [
        {
          "name": "",
          "type": "bool"
        }
      ],
      "payable": false,
      "stateMutability": "nonpayable",
      "type": "function"
    },
    {
      "constant": false,
      "inputs": [],
      "name": "finishMinting",
      "outputs": [
        {
          "name": "",
          "type": "bool"
        }
      ],
      "payable": false,
      "stateMutability": "nonpayable",
      "type": "function"
    },
    {
      "constant": false,
      "inputs": [],
      "name": "startMinting",
      "outputs": [
        {
          "name": "",
          "type": "bool"
        }
      ],
      "payable": false,
      "stateMutability": "nonpayable",
      "type": "function"
    }
  ],
  "bytecode": "0x608060405260038054600160b060020a03191633179055610cab806100256000396000f3006080604052600436106100f05763ffffffff7c010000000000000000000000000000000000000000000000000000000060003504166305d2035b81146100f5578063095ea7b31461011e57806318160ddd1461014257806323b872dd146101695780633f4ba83a1461019357806340c10f19146101aa5780635c975abb146101ce57806366188463146101e357806370a08231146102075780637d64bcb4146102285780638456cb591461023d5780638da5cb5b146102525780639a65ea2614610283578063a9059cbb14610298578063d73dd623146102bc578063dd62ed3e146102e0578063f2fde38b14610307575b600080fd5b34801561010157600080fd5b5061010a610328565b604080519115158252519081900360200190f35b34801561012a57600080fd5b5061010a600160a060020a0360043516602435610338565b34801561014e57600080fd5b50610157610363565b60408051918252519081900360200190f35b34801561017557600080fd5b5061010a600160a060020a0360043581169060243516604435610369565b34801561019f57600080fd5b506101a8610396565b005b3480156101b657600080fd5b5061010a600160a060020a036004351660243561040e565b3480156101da57600080fd5b5061010a61052f565b3480156101ef57600080fd5b5061010a600160a060020a036004351660243561053f565b34801561021357600080fd5b50610157600160a060020a0360043516610563565b34801561023457600080fd5b5061010a61057e565b34801561024957600080fd5b506101a8610603565b34801561025e57600080fd5b50610267610680565b60408051600160a060020a039092168252519081900360200190f35b34801561028f57600080fd5b5061010a61068f565b3480156102a457600080fd5b5061010a600160a060020a036004351660243561070f565b3480156102c857600080fd5b5061010a600160a060020a0360043516602435610733565b3480156102ec57600080fd5b50610157600160a060020a0360043581169060243516610757565b34801561031357600080fd5b506101a8600160a060020a0360043516610782565b60035460a860020a900460ff1681565b60035460009060a060020a900460ff161561035257600080fd5b61035c8383610817565b9392505050565b60015490565b60035460009060a060020a900460ff161561038357600080fd5b61038e84848461087d565b949350505050565b600354600160a060020a031633146103ad57600080fd5b60035460a060020a900460ff1615156103c557600080fd5b6003805474ff0000000000000000000000000000000000000000191690556040517f7805862f689e2f13df9f062ff482ad3ad112aca9e0847911ed832e158c525b3390600090a1565b600354600090600160a060020a0316331461042857600080fd5b60035460a860020a900460ff161561043f57600080fd5b60035460a060020a900460ff161561045657600080fd5b600154610469908363ffffffff6109f416565b600155600160a060020a038316600090815260208190526040902054610495908363ffffffff6109f416565b600160a060020a03841660008181526020818152604091829020939093558051858152905191927f0f6798a560793a54c3bcfe86a93cde1e73087d944c0ea20544137d412139688592918290030190a2604080518381529051600160a060020a038516916000917fddf252ad1be2c89b69c2b068fc378daa952ba7f163c4a11628f55a4df523b3ef9181900360200190a350600192915050565b60035460a060020a900460ff1681565b60035460009060a060020a900460ff161561055957600080fd5b61035c8383610a03565b600160a060020a031660009081526020819052604090205490565b600354600090600160a060020a0316331461059857600080fd5b60035460a860020a900460ff16156105af57600080fd5b6003805475ff000000000000000000000000000000000000000000191660a860020a1790556040517fae5184fba832cb2b1f702aca6117b8d265eaf03ad33eb133f19dde0f5920fa0890600090a150600190565b600354600160a060020a0316331461061a57600080fd5b60035460a060020a900460ff161561063157600080fd5b6003805474ff0000000000000000000000000000000000000000191660a060020a1790556040517f6985a02210a168e66602d3235cb6db0e70f92b3ba4d376a33c0f3d9434bff62590600090a1565b600354600160a060020a031681565b600354600090600160a060020a031633146106a957600080fd5b60035460a860020a900460ff1615156106c157600080fd5b6003805475ff000000000000000000000000000000000000000000191690556040517f452a344f03203071e1daf66e007976c85cb2380deabf1c91f3c4fb1fca41204990600090a150600190565b60035460009060a060020a900460ff161561072957600080fd5b61035c8383610af3565b60035460009060a060020a900460ff161561074d57600080fd5b61035c8383610bd4565b600160a060020a03918216600090815260026020908152604080832093909416825291909152205490565b600354600160a060020a0316331461079957600080fd5b600160a060020a03811615156107ae57600080fd5b600354604051600160a060020a038084169216907f8be0079c531659141344cd1fd0a4f28419497f9722a3daafe3b4186f6b6457e090600090a36003805473ffffffffffffffffffffffffffffffffffffffff1916600160a060020a0392909216919091179055565b336000818152600260209081526040808320600160a060020a038716808552908352818420869055815186815291519394909390927f8c5be1e5ebec7d5bd14f71427d1e84f3dd0314c0f7b2291e5b200ac8c7c3b925928290030190a350600192915050565b6000600160a060020a038316151561089457600080fd5b600160a060020a0384166000908152602081905260409020548211156108b957600080fd5b600160a060020a03841660009081526002602090815260408083203384529091529020548211156108e957600080fd5b600160a060020a038416600090815260208190526040902054610912908363ffffffff610c6d16565b600160a060020a038086166000908152602081905260408082209390935590851681522054610947908363ffffffff6109f416565b600160a060020a03808516600090815260208181526040808320949094559187168152600282528281203382529091522054610989908363ffffffff610c6d16565b600160a060020a03808616600081815260026020908152604080832033845282529182902094909455805186815290519287169391927fddf252ad1be2c89b69c2b068fc378daa952ba7f163c4a11628f55a4df523b3ef929181900390910190a35060019392505050565b60008282018381101561035c57fe5b336000908152600260209081526040808320600160a060020a038616845290915281205480831115610a5857336000908152600260209081526040808320600160a060020a0388168452909152812055610a8d565b610a68818463ffffffff610c6d16565b336000908152600260209081526040808320600160a060020a03891684529091529020555b336000818152600260209081526040808320600160a060020a0389168085529083529281902054815190815290519293927f8c5be1e5ebec7d5bd14f71427d1e84f3dd0314c0f7b2291e5b200ac8c7c3b925929181900390910190a35060019392505050565b6000600160a060020a0383161515610b0a57600080fd5b33600090815260208190526040902054821115610b2657600080fd5b33600090815260208190526040902054610b46908363ffffffff610c6d16565b3360009081526020819052604080822092909255600160a060020a03851681522054610b78908363ffffffff6109f416565b600160a060020a038416600081815260208181526040918290209390935580518581529051919233927fddf252ad1be2c89b69c2b068fc378daa952ba7f163c4a11628f55a4df523b3ef9281900390910190a350600192915050565b336000908152600260209081526040808320600160a060020a0386168452909152812054610c08908363ffffffff6109f416565b336000818152600260209081526040808320600160a060020a0389168085529083529281902085905580519485525191937f8c5be1e5ebec7d5bd14f71427d1e84f3dd0314c0f7b2291e5b200ac8c7c3b925929081900390910190a350600192915050565b600082821115610c7957fe5b509003905600a165627a7a72305820eff3400f97cfdcfbe13607a411d0558a5f9d891a77d955c51e8da8c7987457500029",
  "source": "pragma solidity ^0.4.21;\n\nimport \"./PausableToken.sol\";\n\n\ncontract PausableAndMintableToken is PausableToken {\n    event Mint(address indexed to, uint256 amount);\n    event MintFinished();\n    event MintStarted();\n\n    bool public mintingFinished = false;\n\n    modifier canMint() {\n        require(!mintingFinished);\n        _;\n    }\n\n    modifier cannotMint() {\n        require(mintingFinished);\n        _;\n    }\n\n    function mint(address _to, uint256 _amount)\n        public\n        onlyOwner\n        canMint\n        whenNotPaused\n        returns (bool)\n    {\n        totalSupply_ = totalSupply_.add(_amount);\n        balances[_to] = balances[_to].add(_amount);\n        emit Mint(_to, _amount);\n        emit Transfer(address(0), _to, _amount);\n        return true;\n    }\n\n    function finishMinting() public onlyOwner canMint returns (bool) {\n        mintingFinished = true;\n        emit MintFinished();\n        return true;\n    }\n\n    function startMinting() public onlyOwner cannotMint returns (bool) {\n        mintingFinished = false;\n        emit MintStarted();\n        return true;\n    }\n}\n",
  "sourcePath": "/home/salasar/Desktop/EtherenumWorkspace/polymath-token-master/contracts/PausableAndMintableToken.sol",
  "compiler": {
    "name": "solc",
    "version": "0.4.24+commit.e67f0147.Emscripten.clang"
  },
  "schemaVersion": "2.0.1",
  "updatedAt": "2018-07-06T10:46:39.071Z"
}