{
  "contractName": "TokenAirdrop",
  "abi": [
    {
      "constant": true,
      "inputs": [],
      "name": "owner",
      "outputs": [
        {
          "name": "",
          "type": "address"
        }
      ],
      "payable": false,
      "stateMutability": "view",
      "type": "function"
    },
    {
      "constant": true,
      "inputs": [],
      "name": "totalTokenAirdroped",
      "outputs": [
        {
          "name": "",
          "type": "uint256"
        }
      ],
      "payable": false,
      "stateMutability": "view",
      "type": "function"
    },
    {
      "constant": false,
      "inputs": [
        {
          "name": "newOwner",
          "type": "address"
        }
      ],
      "name": "transferOwnership",
      "outputs": [],
      "payable": false,
      "stateMutability": "nonpayable",
      "type": "function"
    },
    {
      "constant": true,
      "inputs": [],
      "name": "token",
      "outputs": [
        {
          "name": "",
          "type": "address"
        }
      ],
      "payable": false,
      "stateMutability": "view",
      "type": "function"
    },
    {
      "inputs": [
        {
          "name": "_token",
          "type": "address"
        }
      ],
      "payable": false,
      "stateMutability": "nonpayable",
      "type": "constructor"
    },
    {
      "anonymous": false,
      "inputs": [
        {
          "indexed": false,
          "name": "_beneficiary",
          "type": "address"
        },
        {
          "indexed": false,
          "name": "token",
          "type": "uint256"
        }
      ],
      "name": "AddAirdrop",
      "type": "event"
    },
    {
      "anonymous": false,
      "inputs": [
        {
          "indexed": true,
          "name": "previousOwner",
          "type": "address"
        },
        {
          "indexed": true,
          "name": "newOwner",
          "type": "address"
        }
      ],
      "name": "OwnershipTransferred",
      "type": "event"
    },
    {
      "constant": false,
      "inputs": [
        {
          "name": "_beneficiary",
          "type": "address[]"
        },
        {
          "name": "_token",
          "type": "uint256[]"
        }
      ],
      "name": "addAirdrop",
      "outputs": [],
      "payable": false,
      "stateMutability": "nonpayable",
      "type": "function"
    },
    {
      "constant": true,
      "inputs": [],
      "name": "getBalance",
      "outputs": [
        {
          "name": "",
          "type": "uint256"
        }
      ],
      "payable": false,
      "stateMutability": "view",
      "type": "function"
    }
  ],
  "bytecode": "0x608060405234801561001057600080fd5b506040516020806105b8833981016040525160008054600160a060020a0319163317905580600160a060020a038116151561004a57600080fd5b5060018054600160a060020a031916600160a060020a039290921691909117905561053e8061007a6000396000f3006080604052600436106100775763ffffffff7c010000000000000000000000000000000000000000000000000000000060003504166312065fe0811461007c57806361e7f4fa146100a35780638da5cb5b146100d1578063934c4eef14610102578063f2fde38b14610117578063fc0c546a14610138575b600080fd5b34801561008857600080fd5b5061009161014d565b60408051918252519081900360200190f35b3480156100af57600080fd5b506100cf60246004803582810192908201359181359182019101356101e3565b005b3480156100dd57600080fd5b506100e661038c565b60408051600160a060020a039092168252519081900360200190f35b34801561010e57600080fd5b5061009161039b565b34801561012357600080fd5b506100cf600160a060020a03600435166103a1565b34801561014457600080fd5b506100e6610435565b600154604080517f70a082310000000000000000000000000000000000000000000000000000000081523060048201529051600092600160a060020a0316916370a0823191602480830192602092919082900301818787803b1580156101b257600080fd5b505af11580156101c6573d6000803e3d6000fd5b505050506040513d60208110156101dc57600080fd5b5051905090565b60008054600160a060020a031633146101fb57600080fd5b84848281811061020757fe5b90506020020135600160a060020a03166000600160a060020a031681600160a060020a03161415151561023957600080fd5b83838381811061024557fe5b905060200201358060001415151561025c57600080fd5b600092505b858310156103835761029085858581811061027857fe5b9050602002013560025461044490919063ffffffff16565b61029861014d565b10156102a357600080fd5b6102f28787858181106102b257fe5b90506020020135600160a060020a031686868681811015156102d057fe5b600154600160a060020a0316939260209091020135905063ffffffff61045a16565b61030185858581811061027857fe5b6002557f48d84a76099060dfcb2c17aebaddb257af2c6541c8c24b98edd7f1035fef99b287878581811061033157fe5b90506020020135600160a060020a0316868686818110151561034f57fe5b60408051600160a060020a0390951685526020918202939093013590840152508051918290030190a1600190920191610261565b50505050505050565b600054600160a060020a031681565b60025481565b600054600160a060020a031633146103b857600080fd5b600160a060020a03811615156103cd57600080fd5b60008054604051600160a060020a03808516939216917f8be0079c531659141344cd1fd0a4f28419497f9722a3daafe3b4186f6b6457e091a36000805473ffffffffffffffffffffffffffffffffffffffff1916600160a060020a0392909216919091179055565b600154600160a060020a031681565b60008282018381101561045357fe5b9392505050565b82600160a060020a031663a9059cbb83836040518363ffffffff167c01000000000000000000000000000000000000000000000000000000000281526004018083600160a060020a0316600160a060020a0316815260200182815260200192505050602060405180830381600087803b1580156104d657600080fd5b505af11580156104ea573d6000803e3d6000fd5b505050506040513d602081101561050057600080fd5b5051151561050d57600080fd5b5050505600a165627a7a72305820318685816fe755fe88c94ef34f0efcb45fa6086918669bc602c657c209476f0a0029",
  "source": "pragma solidity ^0.4.21;\n\nimport \"./Ownable.sol\";\nimport \"./SafeERC20.sol\";\nimport \"./SafeMath.sol\";\n\n\n\n/**\n * @title TokenAirdrop\n * @dev TokenAirdrop is a token holder contract that will allow a\n * beneficiary to extract the tokens after a given release time\n */\ncontract TokenAirdrop is Ownable {\n    using SafeERC20 for ERC20Basic;\n    using SafeMath for uint256;\n\n    // ERC20 basic token contract being held\n       ERC20Basic public token;\n    // whitelisting contract being held\n    //WhiteList public whitelisting;\n\n    uint256 public totalTokenAirdroped;\n\n    event AddAirdrop ( address _beneficiary, uint256 token);\n\n    modifier checkZeroAddress(address _add) {\n        require(_add != address(0));\n        _;\n    }\n\n    modifier checkZeroValue(uint256 value) {\n        require(value != 0);\n        _;\n    }\n\n\n      constructor(ERC20Basic _token)\n        public\n        checkZeroAddress(_token)\n    {\n        token = _token;\n    }\n\n    function addAirdrop (address[] _beneficiary, uint256[] _token)\n       external\n       onlyOwner\n       checkZeroAddress(_beneficiary[i])\n       checkZeroValue(_token[i])\n    {\n\n     for( uint i = 0 ; i < _beneficiary.length ; i++ ) \n     {\n           require(uint256(getBalance()) >=   totalTokenAirdroped.add(_token[i]));\n           token.safeTransfer(_beneficiary[i], _token[i]);\n\n           totalTokenAirdroped = totalTokenAirdroped.add(_token[i]);\n           emit AddAirdrop(_beneficiary[i], _token[i]);\n          } \n    }\n\n    function getBalance() public view returns (uint256) {\n        return token.balanceOf(address(this));\n    }\n}\n",
  "sourcePath": "/home/salasar/Desktop/EtherenumWorkspace/polymath-token-master/contracts/BulkAirdrop.sol",
  "compiler": {
    "name": "solc",
    "version": "0.4.24+commit.e67f0147.Emscripten.clang"
  },
  "schemaVersion": "2.0.1",
  "updatedAt": "2018-07-06T10:23:14.584Z"
}